:100000000C9481050C94A9050C94A9050C94A905E0
:100010000C94A9050C94A9050C94A9050C94A905A8
:100020000C94A9050C94A9050C94240B0C94930B27
:100030000C94A9050C94A9050C94A9050C94A90588
:100040000C94A9050C94A9050C94A9050C94A90578
:100050000C94A9050C94A9050C94A9050C94C50D44
:100060000C94A9050C94A9050C94A9050C94A90558
:100070000C94A9050C94A9050C94A9050C94A90548
:100080000C94A9050C94A9050C94A9050C94A90538
:100090000C94A9050C94A9050C94A9050C94A90528
:1000A0000C94A9050C94A9050C94A9050000000066
:1000B000003E5B4F5B3E3E6B4F6B3E1C3E7C3E1CEE
:1000C000183C7E3C181C577D571C1C5E7F5E1C0034
:1000D000183C1800FFE7C3E7FF0018241800FFE7EB
:1000E000DBE7FF30483A060E2629792926407F05AE
:1000F0000507407F05253F5A3CE73C5A7F3E1C1CC4
:1001000008081C1C3E7F14227F22145F5F005F5F83
:1001100006097F017F006689956A6060606060946F
:10012000A2FFA29408047E040810207E2010080874
:100130002A1C08081C2A08081E101010100C1E0C7F
:100140001E0C30383E3830060E3E0E060000000011
:100150000000005F00000007000700147F147F14F8
:10016000242A7F2A1223130864623649562050003D
:1001700008070300001C2241000041221C002A1C29
:100180007F1C2A08083E0808008070300008080814
:100190000808000060600020100804023E51494534
:1001A0003E00427F400072494949462141494D3352
:1001B0001814127F1027454545393C4A49493141B9
:1001C000211109073649494936464949291E000087
:1001D00014000000403400000008142241141414DC
:1001E0001414004122140802015909063E415D59C8
:1001F0004E7C1211127C7F494949363E41414122D1
:100200007F4141413E7F494949417F090909013EFA
:10021000414151737F0808087F00417F4100204021
:10022000413F017F081422417F404040407F021C33
:10023000027F7F0408107F3E4141413E7F0909094A
:10024000063E4151215E7F09192946264949493216
:1002500003017F01033F4040403F1F2040201F3FDC
:100260004038403F63140814630304780403615961
:10027000494D43007F4141410204081020004141A3
:10028000417F04020102044040404040000307084F
:100290000020545478407F2844443838444444284B
:1002A000384444287F385454541800087E090218F2
:1002B000A4A49C787F0804047800447D400020407A
:1002C000403D007F1028440000417F40007C0478BE
:1002D00004787C080404783844444438FC18242406
:1002E0001818242418FC7C08040408485454542486
:1002F00004043F44243C4040207C1C2040201C3C03
:100300004030403C44281028444C9090907C4464F9
:10031000544C44000836410000007700000041368C
:10032000080002010204023C2623263C1EA1A16112
:10033000123A4040207A3854545559215555794144
:100340002154547841215554784020545579400C1B
:100350001E527212395555555939545454593955FC
:100360005454580000457C410002457D420001453F
:100370007C40F0292429F0F0282528F07C545545AC
:10038000002054547C547C0A097F4932494949323F
:100390003248484832324A4848303A4141217A3A54
:1003A00042402078009DA0A07D39444444393D401E
:1003B00040403D3C24FF2424487E4943662B2FFCCB
:1003C0002F2BFF0929F620C0887E09032054547979
:1003D000410000447D413048484A32384040227A4A
:1003E000007A0A0A727D0D19317D2629292F2826C7
:1003F0002929292630484D402038080808080808CF
:100400000808382F10C8ACBA2F102834FA00007B27
:10041000000008142A142222142A1408950022002D
:1004200095AA005500AAAA55AA55AA000000FF00E7
:10043000101010FF00141414FF001010FF00FF1024
:1004400010F010F0141414FC001414F700FF000056
:10045000FF00FF1414F404FC141417101F10101FD5
:10046000101F1414141F00101010F0000000001FC3
:10047000101010101F10101010F010000000FF10CE
:100480001010101010101010FF10000000FF1400CA
:1004900000FF00FF00001F10170000FC04F41414FC
:1004A0001710171414F404F40000FF00F7141414C8
:1004B00014141414F700F7141414171410101F1048
:1004C0001F141414F4141010F010F000001F101F6B
:1004D0000000001F14000000FC140000F010F010D9
:1004E00010FF10FF141414FF141010101F00000050
:1004F00000F010FFFFFFFFFFF0F0F0F0F0FFFFFF54
:100500000000000000FFFF0F0F0F0F0F38444438AA
:10051000447C2A2A3E147E02020606027E027E02E5
:1005200063554941633844443C04407E201E200604
:10053000027E020299A5E7A5991C2A492A1C4C7241
:1005400001724C304A4D4D303048784830BC625AC8
:10055000463D3E494949007E0101017E2A2A2A2A58
:100560002A44445F444440514A444040444A514034
:100570000000FF0103E080FF000008086B6B0836F5
:1005800012362436060F090F060000181800000066
:100590001010003040FF0101001F01011E00191D55
:1005A0001712003C3C3C3C0000000000F0F89C8E20
:1005B0008783878E9CF8F00000FEFF03030303038C
:1005C000070EFCF80000FEFF0303030303070EFC05
:1005D000F80000FFFF00000000000000FFFF000027
:1005E000FEFF8383838383C7EE7C380000F8FC0E14
:1005F00007030303070EFCF800003F7FE0C0808084
:10060000C0E07F3FFFFF01010101010101FFFF0089
:1006100000FFFF0C0C0C0C1C3E77E3C100007FFFB9
:10062000C0C0C0C0C0E0703F1F00001F3F70E0C0EE
:10063000C0C0E0703F1F00007FFFC1C1C1C1C1E366
:10064000773E1C00001F3F70E0C0C0C0E0703F1F3D
:10065000000000000001FFFF01000000D5F08D1434
:10066000A1C881CFD9F1AF2000740072006100747D
:100670000053006F005400100A00C0202094781826
:1006800018B070F0F03038F80C03000000030000E0
:10069000030002030000000102C0202014C83898A3
:1006A0007070B070F030F80C00030000000300011F
:1006B000020000030000000102E0201408F8B85016
:1006C00070B070F07058CC0000000300000102010F
:1006D0000202010200000001028832000000000056
:1006E000000000000000000000000000000000808A
:1006F00000000000000000000000000000000000FA
:100700000000000000008080808080000080800069
:100710000000000000000080E0F01C8683C3E37F3F
:100720001E000000000000000000000080808080AB
:100730008080800000000000000000000000000039
:1007400000000000000000000000000000000000A9
:100750000000000000000000000000000000000099
:100760000000000000000000C0C0E07030381C1C19
:100770000E06060606030303030206060E0E1C7889
:10078000F0C000000000000000FCFEF6C6070303F6
:10079000013FFF3F1E0303070E1CF8F0F0703C3FC3
:1007A0001F0F8F8F0F0F1F1C38F0E0C0FCFE0E02D2
:1007B0000202021F7F1F070101033FF80000000033
:1007C00000000080FCDC9C1C1C08183830F0E08025
:1007D000C0E0C0C0C0C0C080000000000000000039
:1007E0000000000000000000000000000000000009
:1007F000011F3FFCF0E0C0C08000000000000000CE
:100800001C3C3C7CF8F0000081FFFEE040101038FA
:1008100018193F7FFFE00000000000000040E0F0FA
:10082000FCFEFF8F010000001E0F0F070360703CED
:100830003E7FFFFFFF9F000000000000000000005F
:10084000000080FFFF381C8C0C04040E0F1F3F6655
:10085000C000000000033FFF3F0000000000FF7BDE
:100860000000000000000000000000000000000088
:100870000000000000000000000000010303031F4F
:10088000FFFCF0000000000000000080E1F0F87EB6
:100890000F030100087E7C70707020000103FE00D1
:1008A0000000C0C0C0C081010103071F3C7870E098
:1008B000E0C0C0C0C0E0E0E0F0F8FCFF1F030000B3
:1008C00000C0F0C000C0F0C0C0FEFF010000030F78
:1008D0001E1C1C1C0000808E7F0000000000000019
:1008E00000000080FE7F010000000000000000000A
:1008F00000000000000000000000000000000000F8
:10090000000000000000000000033FFFFCE080004A
:100910000000030FFFFF073EFCF0E0C0C0808080B6
:10092000C0C0E0F0FEFEE18080FAFFFF3F0707074E
:100930000F0E1C3C38F0F0E0E0E1FFEF0101010098
:1009400003070F1F0E0C0C1C1E1F070F1FFFFFFFBE
:10095000FF83878EFCF8F8F0F83038F8FCFE0701CA
:100960000080F0FEFE00000000807E3F01000000DD
:100970000000000000000000000000000000000077
:100980000000000000000000000000000000000067
:10099000000000000F1FFFF8E0C0E0E0737F3F1889
:1009A0000000030303030303030100000003030328
:1009B000030303010000000000000000000000002D
:1009C0000101010000000000000000000000000024
:1009D00000000000000001030303030303030301FD
:1009E0000100000303030303073F3F7F7FE0E0E0D4
:1009F0007C3F00000000000000000000000000003C
:100A000000000000000000000000000000000000E6
:100A100000000000000000000000000000000103D2
:100A200003030100000000000000000000000000BF
:100A300000000000000000000000000000000000B6
:100A400000000000000000000000000000000000A6
:100A50000000000000000000000000000000000096
:100A60000000000000000000000000000000000086
:100A70000000000000000001000000000000000075
:100A80000000000000000000000000000000000066
:100A9000000000080B00020202000009040000012F
:100AA00002020000052400100105240101010424B4
:100AB0000206052406000107058103100040090411
:100AC0000100020A000000070502024000000705BD
:100AD00083024000000403090412010002EF020136
:100AE00040412336800001010203014172647569AF
:100AF0006E6F204C4C430041726475626F79000048
:100B0000870E11241FBECFEFDAE0DEBFCDBF11E0AC
:100B1000A0E0B1E0EEE7F3E202C005900D92AC3642
:100B2000B107D9F725E0ACE6B1E001C01D92AB3FBB
:100B3000B207E1F715E0C1E8D5E004C02197FE0156
:100B40000E94B711C038D107C9F70E94B80E0C94A3
:100B5000BD110C940000E4E9F1E0A0E0B8E00080F1
:100B60000EBC8111012C1197A0FDFDCF0192B9F7A8
:100B70000DB40895FC0180919301882311F13FB7D2
:100B8000F89482E08093E9002091F200822F90E0B7
:100B90001816190614F481E090E0882339F028989B
:100BA00044E6409392014091F1004083222339F0C2
:100BB0002091F200211103C02BE62093E8003FBFF3
:100BC00008958FEF9FEF08952FB7F89483E08093F7
:100BD000E9009091E800892F807295FF04C0909100
:100BE000F20080E4891B2FBF089580918A01811152
:100BF0000DC082E08093860184E08093870110928B
:100C000089011092880181E080938A0186E891E051
:100C10000895CF93DF931F92CDB7DEB76983DC01D0
:100C2000ED91FC910280F381E02D41E050E0BE01A6
:100C30006F5F7F4F09950F90DF91CF91089583E00B
:100C40008093E9008091F200882319F08AE3809371
:100C5000E80008950E94E40590E00895CF93DF93A3
:100C60001F92CDB7DEB7FC018485958597FD08C03E
:100C70002FEF3FEF358724870F90DF91CF910895B5
:100C8000CE0101960E94BA05019719F4898190E07E
:100C9000F3CF8FEF9FEFF0CF0F931F93CF93DF939F
:100CA0001F92CDB7DEB78C01FC018485958597FF37
:100CB0000BC0CE0101960E94BA05019771F489819B
:100CC00090E0F80195878487F801848595850F90D9
:100CD000DF91CF911F910F9108958FEF9FEFF1CF8B
:100CE000FC018485958597FD0BC09FB7F89482E041
:100CF0008093E9008091F2009FBF90E001960895F3
:100D00009FB7F89482E08093E9008091F2009FBF42
:100D100090E00895409180015091810120917E01E1
:100D200030917F0142175307B4F49091E800957019
:100D3000E1F39091E80092FD19C08093F100809159
:100D400080019091810101968F739927892B19F465
:100D50008EEF8093E800809180019091810101964F
:100D6000909381018093800181E0089580E008954F
:100D7000DF92EF92FF920F931F93CF93DF93D82EC2
:100D80008A01EB017B01E40EF51ECE15DF0559F05B
:100D9000D7FE12C0FE0184910E948A06219681111D
:100DA000F4CF0FEF1FEFC801DF91CF911F910F918B
:100DB000FF90EF90DF9008958881EECF0F931F93FF
:100DC000CF93DF931F92CDB7DEB782E0898342E4F1
:100DD00050E063E97AE080E80E94B8060E94F505D9
:100DE000DC0112960D911C910115110589F0D801B5
:100DF000ED91FC910280F381E02DBE016F5F7F4F8A
:100E0000C801099597FD04C0F80100851185ECCF54
:100E100089810F90DF91CF911F910F9108956150BB
:100E200030F02091F100FC0120830196F8CF289842
:100E300084E68093920108950895AF92BF92CF9275
:100E4000DF92EF92FF920F931F93CF93DF936C018A
:100E50007B018B01040F151FEB015E01AE18BF086B
:100E6000C017D10759F06991D601ED91FC9101901D
:100E7000F081E02DC6010995892B79F7C501DF9135
:100E8000CF911F910F91FF90EF90DF90CF90BF9087
:100E9000AF900895FC010E94E107319728F0685156
:100EA0007C4F8F4F9F4FF9CFAB01FC010E94E107B0
:100EB000641775078E079F07C8F308958F929F9256
:100EC000AF92BF92CF92DF92EF92FF920F931F9358
:100ED000CF93DF936C017B018A0180910B01882302
:100EE00009F45AC080919301882309F455C0809178
:100EF000850180FF05C08091E00082608093E00062
:100F0000E801B12C8AEFA82E93E0892E2AE3922ED5
:100F1000209711F4BB20C9F10E94E405811108C09B
:100F2000AA94AA20C9F181E090E00E944A07F0CF7C
:100F30008C171D0611F00CF08C2F9FB7F89480923F
:100F4000E9002091E80025FD02C09FBFE1CF282FD6
:100F500030E0C21BD30BF701815020F04191409348
:100F6000F100FACFE20EF31EBB2021F09092E800D0
:100F7000B12CEBCF8091E80085FDE7CF9092E8009F
:100F8000BB24B394209709F3F3CF5D9884E6809354
:100F90008401101611063CF081E090E0F601938385
:100FA000828310E000E0C801DF91CF911F910F9183
:100FB000FF90EF90DF90CF90BF90AF909F908F9079
:100FC0000895A4E7B1E02FB7F8947D918D919C919D
:100FD00066B52FBFA89B05C06F3F18F47F5F8F4F8A
:100FE0009F4F22E0660F771F881F991F2A95D1F720
:100FF00008952F923F924F925F926F927F928F92BD
:101000009F92AF92BF92CF92DF92EF92FF920F9397
:101010001F93CF93DF9300D000D01F92CDB7DEB7E0
:101020005D834C835901EC2D402F50E0DA01A80F6D
:10103000B91F109709F43EC09B012E0D311D232BC3
:10104000C9F12C813D81232BA9F1362F37703983CB
:1010500013E0759567951A95E1F7262FA038B1052D
:1010600014F000E8081BA1E0FE2DF77009F4A0E0E1
:10107000E694E694E694EA0EDB01AE0DB11D1997F5
:101080001CF0F8E0EF2EE61ADB01B695BA2FAA277E
:10109000B795A7958A0F9B1FF980AF2DFF0CBB0B4F
:1010A000E33009F435C1F0F4E13009F4EEC0E23088
:1010B00009F453C00F900F900F900F900F90DF9195
:1010C000CF911F910F91FF90EF90DF90CF90BF9045
:1010D000AF909F908F907F906F905F904F903F90D8
:1010E0002F900895EA3F09F48CC0EB3F19F7E22FE7
:1010F000E61BEE15F8F6FC01EC56FE4F6F01B12C25
:10110000A12CEC81FD81A01608F0ACC0EA0DFB1DFE
:101110008490912C0A2E02C0880C991C0A94E2F744
:1011200027FD07C0F6017080F82DF0957F22F601AB
:101130007082F980FF2051F0273044F4F601E05826
:10114000FF4F892C80949080982090821FEFA11AE5
:10115000B10A3FEFC31AD30AD4CF66246A94712C24
:10116000098002C0660C771C0A94E2F760947094C0
:10117000572CE22FE61BEE1508F09CCFFC01EC5635
:10118000FE4F6F01B12CA12CEC81FD81A01650F512
:10119000EA0DFB1DE491F0E01F010A2E02C0220CB3
:1011A000331C0A94E2F727FD05C0F60190809620D3
:1011B00092289082F980FF2071F0273064F4460174
:1011C00010E8810E911CF4014080E42DE5214E2EA3
:1011D0004328F4014082FFEFAF1ABF0A1FEFC11A84
:1011E000D10AD2CFE40FF51FFD83EC8380589F4FC7
:1011F0002F5FBFCFE40FF51FFD83EC8380589F4F17
:101200002F5FE22FE61BEE1508F054CFFC01EC56E1
:10121000FE4F6F01B12CA12CEC81FD81A01650F77F
:10122000EA0DFB1D8490912C0A2E02C0880C991C9B
:101230000A94E2F727FD04C0F601708078287082D6
:10124000F980FF2041F0273034F4F601E058FF4FD9
:101250008080982890821FEFA11AB10A3FEFC31A2D
:10126000D30ADACFE40FF51FFD83EC8380589F4F3C
:101270002F5F3DCFEC81FD81E40FF51FFD83EC83F3
:10128000A40EB51E80589F4F2F5FE22FE61BEE1570
:1012900008F010CFFC01EC56FE4F6F01912C812C11
:1012A000801640F7F501E80DF91D6490712C0A2EA7
:1012B00002C0660C771C0A94E2F760947094EC818B
:1012C000FD81E80DF91D4490512C0A2E02C0440CFA
:1012D000551C0A94E2F727FD08C0F6013080E32D83
:1012E000E6213E2E3428F6013082F980FF2049F0B5
:1012F00027303CF4F601E058FF4F608076207528D7
:1013000070821FEF811A910A3FEFC31AD30AC8CF28
:10131000E02FF0E08C569E4FA0E8B0E06D01CE1AB1
:10132000DF0A4E1B5F0B4A01880C991CE1E0F0E0DC
:101330005F01098002C0AA0CBB1C0A94E2F7B02E20
:10134000402F5E2DEC81FD81DC0186019401F98046
:10135000CF93DF93ED01EF96EF96229665908590FF
:10136000FF2059F06A9C30018A9C400167302CF4C0
:10137000C8809094C920C728C99266233AF0CC90BF
:101380008094C820C628CD920C94C70911964A951E
:1013900029F75A9551F04B2D63951124E20FF11D59
:1013A000A00FB11DC00FD11DD9CFDF91CF91112456
:1013B00081CE2D9A089590E00C944A078FB18095C4
:1013C000807F669B88601C9B846008952F923F926B
:1013D0004F925F926F927F928F929F92AF92BF9245
:1013E000CF92DF92EF92FF920F931F93CF93DF93F1
:1013F000CDB7DEB72B970FB6F894DEBF0FBECDBFCB
:101400009C838B836A3061F5DC0155968C91B8E042
:101410008B9F90011124EB81FC8181899289820F3D
:10142000931F928B818B108A178681E090E02B9618
:101430000FB6F894DEBF0FBECDBFDF91CF911F91E5
:101440000F91FF90EF90DF90CF90BF90AF909F9063
:101450008F907F906F905F904F903F902F90089566
:101460006D3019F3AB81BC8155969C90559754967D
:101470005C9054975D8253964C9053975196ED90A3
:10148000FC9052971F968D919C91092D10E0803809
:1014900091050CF084C020E4E216F1040CF07FC04A
:1014A000E5E09C019E9E200D311D112412161306AD
:1014B0000CF075C09801F3E0220F331FFA95E1F7A5
:1014C0002E0D3F1D121613060CF069C06E9FF00121
:1014D0001124BF0164557F4F7F836E83AC01712C53
:1014E000EE81FF812491F5E07F1201C020E06701C9
:1014F00078E0672E222E312C842C20FF8D808110E5
:1015000004C05D80541409F437C09A012983622F06
:10151000641B691508F030C01B861A866A85691538
:1015200040F520383105F0F4AA84BB84AC0CBD1C16
:1015300070E4A716B104B0F4F50170E1598061E0E0
:10154000E1FD64E0E0FD660FE2FD6295E87F7E9FCD
:10155000D0011124A50DAC56BE4F0C90062A80FE7A
:1015600006260C926A857B856F5F7F4F7B876A8733
:10157000D5CF2F5F3F4FCACF9101359527956A94FC
:10158000C00ED11E6110B6CF7394EE81FF813196EB
:10159000FF83EE83400F511FF6E07F12A1CF26E0BC
:1015A000929E800D911D1124AB81BC8150969C931D
:1015B0008E931F9756962C915697222309F435CF78
:1015C0004AEF40039001419F300D112420583F4FB6
:1015D000281739070CF029CFCD01ED91FC9101902E
:1015E000F081E02D6AE0099520CF0F931F93CF93F0
:1015F000DF938C01D0E0C0E0F801EC0FFD1F649197
:10160000662341F084EE95E00E94E609892B11F0F3
:101610002196F2CFCE01DF91CF911F910F910895C6
:101620000895089590E080E00895FC010190002065
:10163000E9F73197AF01481B590BBC0184EE95E0E7
:101640000C941D070C948D111F920F920FB60F92E0
:1016500011248F939F938091E1009091E100937FFB
:101660009093E10083FF0FC01092E90091E0909306
:10167000EB001092EC0092E39093ED001092930136
:1016800098E09093F00082FF22C093E09093E900ED
:101690009091F200992319F09AE39093E8009091C9
:1016A0008401992341F09091840191509093840199
:1016B000911101C05D9A90919201992341F090910E
:1016C0009201915090939201911101C0289A84FF48
:1016D00018C08091E2008E7E81608093E20080914C
:1016E000E1008F7E8093E100809185018E7E806194
:1016F000809385019F918F910F900FBE0F901F9047
:10170000189580FFF7CF8091E2008E7E80618093F4
:10171000E2008091E1008E7E8093E100809185015E
:101720008E7E8160E5CF1F920F920FB60F9211242B
:10173000CF92DF92EF92FF920F931F932F933F93DD
:101740004F935F936F937F938F939F93AF93BF93C9
:10175000EF93FF93CF93DF93CDB7DEB76C97DEBFE8
:10176000CDBF1092E9008091E80083FF25C068E0BA
:10177000CE0145960E940F0782EF8093E8008D8985
:1017800087FF39C09091E80090FFFCCF982F9076AA
:1017900009F034C19E894F89588D2F89F88C911199
:1017A00031C0803861F5809183018093F1001092FF
:1017B000F1008EEF8093E8006C960FB6F894DEBFD0
:1017C0000FBECDBFDF91CF91FF91EF91BF91AF9150
:1017D0009F918F917F916F915F914F913F912F9149
:1017E0001F910F91FF90EF90DF90CF900F900FBE61
:1017F0000F901F9018959EEF9093E800C7CF10921E
:10180000F100D5CF913059F48111D3CF413051053A
:1018100081F6809183018D7F80938301CACF9330BD
:1018200049F48111C6CF4130510519F680918301E9
:101830008260F2CF953041F48091E80080FFFCCFC8
:1018400020682093E300B5CF963009F0A9C00B8D36
:101850001C8D22E01092E90010928101109280010B
:10186000F2122EC010927F0110927E010E94DE06BD
:101870001F8299E09983FA8291E09E8390EA98878B
:101880009AEF99872091800130918101275F3F4F26
:101890003C832B838D831092E9001092810110927A
:1018A000800110937F0100937E0149E050E0BE016A
:1018B0006F5F7F4F80E00E94B8060E94DE0679CFFE
:1018C00010937F0100937E010E94F505DC011296C2
:1018D0000D911C910115110509F451C1D801ED912B
:1018E000FC910480F581E02DBE016B5E7F4FC80145
:1018F0000995009709F03EC1F80100851185EACFEE
:10190000F3E0FF120EC08F89882309F440C08230B3
:1019100061F440E867E087EF9AE00E940F0E8111C2
:1019200048CF81E28093EB0047CF813029F440E833
:101930006BE08BEE9AE0F1CF833099F70E94F505CA
:10194000DC011296ED90FC908E010F5F1F4F680135
:10195000E114F10479F0D701ED91FC910680F78153
:10196000E02DB801C7010995080F111DF701E084AA
:10197000F184EECFD8011C92F60101900020E9F726
:101980003197BF016C197D0940E0C601C6CF65EDF6
:101990007AE0FB01449150E080E80E94B80609CF4C
:1019A000973009F4BECF983021F481E08093F100A4
:1019B00000CF993009F0FDCE837009F0B2CFEDE091
:1019C000F1E081E031E096E32191222371F08093F0
:1019D000E9003093EB00DF0111972C912093EC008C
:1019E0009093ED008F5F873079F78EE78093EA0060
:1019F0001092EA008F8980939301DBCE8B8D9C8DB2
:101A00001092E900109281011092800190937F0161
:101A100080937E01898D811192C08E899D89913A32
:101A200049F4813209F07DCF47E050E064E071E095
:101A300080E0B3CF913209F074CF833269F48F899B
:101A4000988DB0E0A0E08093000190930101A093F5
:101A50000201B0930301ADCE803269F48091E800B9
:101A600082FFFCCF67E084E091E00E940F078BEFDC
:101A70008093E8009ECE823209F09BCE8F898093BE
:101A80000B01EEEFFFE7859194918B3F9C4D51F157
:101A9000E0E0F8E08091040190910501A091060139
:101AA000B0910701803B9440A105B105F1F480910C
:101AB0000B0180FD1AC0EE3F8AE0F80789F587E741
:101AC00097E791838083809160008093820188E111
:101AD0009BE00FB6F894A895809360000FBE90939A
:101AE000600067CEEEEFFAE0D5CF80819181873735
:101AF000974709F05ECEA895809160008861809339
:101B000060008091820180936000EE3F2AE0F2073E
:101B100089F08091FE0A9091FF0A9183808349CEDB
:101B2000808191818737980751F29093FF0A8093C3
:101B3000FE0AC5CF1092FF0A1092FE0A3ACE0E940A
:101B4000F505DC0112960D911C910115110509F4A2
:101B5000E8CED801ED91FC910190F081E02DBE011D
:101B60006B5E7F4FC8010995811123CEF801008576
:101B70001185EBCF181619060CF41BCED2CEF1E06E
:101B8000FF12BECE69ED7AE004CF0F920FB68F93AD
:101B90009F93EF93FF93809173018D5F8D3708F0D2
:101BA0008D5780937301E8E7F1E080818E4F808349
:101BB00091819F4F918382818F4F828383818F4F49
:101BC0008383E4E7F1E080818F5F808381818F4FA1
:101BD000818382818F4F828383818F4F83838FB1F3
:101BE0008F6066991C9B88278F3681F480917201E3
:101BF000981B963068F0E0E0F8E087E78083818307
:101C000088E180936000F0936000FFCF90937201B1
:101C1000FF91EF919F918F910FBE0F901895EF92CA
:101C2000FF920F931F93CF93DF93F82E192FE62E79
:101C3000042F81E0860F880F0E948A0683E00E94AD
:101C40008A06CF2DD12FEC0EFD2EF11CCE15DF050F
:101C5000B9F007FF13C0FE0184910E948A06182F75
:101C600080E00E948A06812321968111EFCFDF91C7
:101C7000CF911F910F91FF90EF9008958881EDCF44
:101C800081E0F5CF0F931F93CF93DF938C0181E019
:101C900090E00E94220B80FF32C08AE090E00E9418
:101CA000220B9FEF980F9E3F50F522E330E0D801C2
:101CB00050963C932E931F9728E330E052963C9326
:101CC0002E935197CBE0D0E0D801ED91FC9101909B
:101CD000F081E02D682FC8010995CE010E94220BEA
:101CE0002196C131D10581F780E00E94AB0588EED5
:101CF00093E0DF91CF911F910F910C944A07DF91F0
:101D0000CF911F910F91089504970C94420EE4E92E
:101D1000F5E01382128288EE93E0A0E0B0E08483C5
:101D20009583A683B78387E191E0918380838FEFCA
:101D30009FEF95878487E4EEF5E013821282118687
:101D4000128680E1838710861782158689E291E0EA
:101D50009183808387E391E095838483108A17863B
:101D6000128A118A81E0838B148A858B168A0895E2
:101D7000789483E084BD83E085BD81E080936E002C
:101D8000E1E8F0E083E08083E0E881E08083E1E95E
:101D900083E08083E0E981E08083E1EC87E0808379
:101DA000E3EC81E08083E0EC82E08083E2EC81E0A0
:101DB0008083EAE787E080838068808310929301C4
:101DC00010928301109285018091D70081608093E9
:101DD000D70080EA8093D80089B5806189BD89B534
:101DE000826089BD09B400FEFDCF81E090E00E94D1
:101DF0004A078091D8008F7C80618093D8008091C1
:101E0000E000807F8093E0008091E1008E7E8093EF
:101E1000E1008DE08093E200559A209A81EC809356
:101E20007C0081EF85B987EE84B982E38BB982EFBC
:101E30008AB9769A6E9880EF81BB10BA80E58CBD26
:101E400081E08DBD85E00E94DB095F9A85E00E94FC
:101E5000DB095C98ECE5F6E085918EBD00000DB4E1
:101E600007FEFDCFE936C1F75C9A81E880936400F4
:101E700081E0809365000E94AB050E94DE0987FF28
:101E800015C05C9885EA8EBD00000DB407FEFDCF3D
:101E90005C9A2E982F982D98809164008062809390
:101EA000640081E083BF889513BEFCCF0E94DE09E9
:101EB00082FF45C02D980E94DE0984788438D9F4C9
:101EC0000E94D90988EC0E94DB092F9882E090E0FB
:101ED0000E948D118F3F29F06FEF82E090E00E9409
:101EE000951184EF91E00E944A072F9A0E94DE0923
:101EF00084788438D9F30E94DE0984718431D9F45E
:101F00000E94D90988EC0E94DB092E9882E090E0BB
:101F10000E948D11882329F060E082E090E00E9409
:101F2000951184EF91E00E944A072E9A0E94DE09E3
:101F300084718431D9F388EC0E94DB09B7CF0E9409
:101F4000D90982E090E00E94220B882309F469C03D
:101F50003E9A3F9A81E090E00E94220B182F147065
:101F600081FF0CC011112E98C1EFDFEF0E94DE0936
:101F700086FF5AC02E9A2F9A0E94D90982E30E94A6
:101F8000DB090E94DE098111F9CF81E28093EF0520
:101F9000C8E7D0E020E2222E312C38E2A32EB12C6B
:101FA00040E3842E912C58E3652E712C69E1462E76
:101FB000512C909178018091F005F92FF81B8F2F0B
:101FC0002091F105222309F4A3C0F093F2051092A9
:101FD000F10590E0E4E9F1E091119FEF8FEF91932B
:101FE0009193919391938150D0F71092F6051092AE
:101FF000F5051092F4051092F3058091ED0580939C
:10200000EE050E94DE098093ED0580917D01882315
:1020100009F49FC0813009F42EC180E00E94AB0515
:1020200090C03E983F9896CF112329F0C430D10537
:1020300011F42E9A2F9881E00E94AB050C2F0770A7
:10204000502ECE0173E0959587957A95E1F7AC0116
:102050005695542F44275795479570E060E08E3F82
:102060002FEF920791F1DA01AC56BE4F30E020E03D
:10207000FB01E455FA4F5F01FA01EC5EFD4F4F01A1
:10208000F501E20FF31FE491F0E01F01052C02C0FF
:10209000220C331C0A94E2F78F3F980739F05496CC
:1020A000EC905497E2285496EC925497552039F0CE
:1020B0003401620E731EF30104890329048B2F5F20
:1020C0003F4F119628353105D9F60196685A7F4F52
:1020D00040585F4F603B710509F0C1CF80E00E941E
:1020E000AB058FE00E94DB092196C931D10509F0CB
:1020F0003DCF112311F02F9A2D9880E991E00E9495
:102100004A070E94D90984EE95E00E94420E36CF1C
:102110002091EF05F21748F48F5F821708F059CF2E
:1021200081E083BF889513BE54CF81E08093F10591
:102130009093F005EBEEF5E080819181019680832C
:10214000918380E090E0892B09F433CF0E94000056
:1021500021CFE9EDF6E00491EAEDF6E0E49092E0BB
:10216000C92E30E020E04BED56E070E060E090E0FA
:1021700080E00E94F90786E190E09093F405809357
:10218000F305E2E3F0E0F093F605E093F50589E36B
:1021900091E00E94150B1092F4051092F305109235
:1021A000F6051092F50589E491E00E94150BD09395
:1021B000F405C093F3051092F6051092F50585E736
:1021C00096E00E94F50AD093F405C093F30588E0E9
:1021D00090E09093F6058093F50583E796E00E94E2
:1021E000F50AD093F405C093F305E8E1F0E0F0932D
:1021F000F605E093F50581E796E00E94F50AD09395
:10220000F405C093F3053092F6052092F5058FE6AC
:1022100096E00E94F50AD093F405C093F305B092BE
:10222000F605A092F5058DE696E00E94F50AD0939A
:10223000F405C093F3059092F6058092F5058BE6C0
:1022400096E00E94F50AD093F405C093F3057092CE
:10225000F6056092F50589E696E00E94F50A809100
:10226000EE0583FDDACE8091ED0583FFD6CE81E0C9
:1022700080937D01D2CE5092F4054092F3058CE11B
:1022800090E09093F6058093F50587E591E00E9434
:10229000150B10917C01E7E7F6E00491E8E7F6E022
:1022A000E49049E756E01123D1F021E030E09E2D83
:1022B000977011F430E020E08E2D869586958695F6
:1022C000820F932F911D089F9001099F300D1124BB
:1022D000129FA001139F500D11244758594F82E0BF
:1022E000C82E30E020E066E370E088E390E00E94D2
:1022F000F9078091EB059091EC0565E070E00E9494
:10230000A311892B09F089CE123020F41F5F10939E
:102310007C0183CE10927C0180CEF999FECF92BDD4
:1023200081BDF89A992780B50895262FF999FECF97
:102330001FBA92BD81BD20BD0FB6F894FA9AF99AE2
:102340000FBE01960895AA1BBB1B51E107C0AA1F2F
:10235000BB1FA617B70710F0A61BB70B881F991F46
:102360005A95A9F780959095BC01CD010895EE0F7F
:0E237000FF1F0590F491E02D0994F894FFCF23
:10237E00FFFFFFFF00E100000000000000C18081B0
:10238E000000000000000009065E072A061F067006
:10239E00062E064C0600000000E6091D07120B1162
:1023AE000B420EFCFF0000840E41726475626F7961
:1023BE002056657273696F6E00500A720A650A7351
:1023CE000A730A200A410047455420535449434B8F
:0C23DE0020425547474544204C4F4C001E
:00000001FF
